10001ALICE SCHMIDT       SALEE00950000004500AM12                                
10002BOB MUELLER         SALEC00620000004000AS06                                
10003CAROL WEBER         ITDVD00780000004800AM09                                
10004DAVE JONES          ITDVB00540000004000AS03                                
10005EVE TERMINATED      HRESA00400000004000TS01                                
10006FRANK LONG          HRESA00460000003850AM20                                
10007GINA EXEC           EXECE01200000005000AM15                                
